:020000040800F2
:10000000C0D70020DD010008A7420008B938000869
:10001000A542000809110008F95700080000000077
:100020000000000000000000000000004501000882
:100030000714000800000000890100088947000833
:10004000F7010008F7010008F7010008F7010008B0
:10005000F7010008F7010008C1160008F7010008C1
:10006000F7010008F7010008F7010008F701000890
:10007000F7010008F7010008F7010008F701000880
:10008000D1130008F7010008F7010008F701000884
:10009000F7010008F7010008F7010008F701000860
:1000A000F7010008F7010008F7010008F701000850
:1000B000F701000861480008F7010008F70100088F
:1000C000F7010008F7010008F7010008F701000830
:1000D000F7010008F7010008695600087556000886
:1000E000E5160008F7010008F7010008F70100080D
:1000F000F7010008F7010008F7010008F701000800
:10010000F7010008F7010008F7010008F7010008EF
:10011000F7010008F7010008F7010008F7010008DF
:10012000F7010008F7010008F7010008F7010008CF
:10013000DFF80CD000F04AFD00480047AD6500082C
:10014000C0D70020224B19680868B0E8F00F80F390
:100150000988BFF36F8F4FF0000080F311884EF0D5
:100160000D0E70470000000006480068006880F32C
:10017000088862B661B6BFF34F8FBFF36F8F00DFA1
:1001800000BF00BF08ED00E0EFF30980BFF36F8F01
:100190000F4B1A6820E9F00F106008B54FF05000BF
:1001A00080F31188BFF34F8FBFF36F8F08F0BEFA53
:1001B0004FF0000080F31188BDE808401968086816
:1001C000B0E8F00F80F30988BFF36F8F704700BF6E
:1001D00054010020EFF30580704700000648804777
:1001E00006480047FEE7FEE7FEE7FEE7FEE7FEE71C
:1001F000FEE7FEE7FEE7FEE71948000831010008C8
:10020000202A04DB203A21FA02F00021704721FA6B
:1002100002F3D040C2F120029140084319467047D2
:10022000004870477896000810B50446FFF7F8FFBD
:100230000068005D00F0010010BD40EA01039B076B
:1002400003D009E008C9121F08C0042AFAD203E04B
:1002500011F8013B00F8013B521EF9D27047D2B2AF
:1002600001E000F8012B491EFBD270470022F6E79F
:1002700010B513460A4604461946FFF7F0FF20461C
:1002800010BD30B505462A460B4612F8010B13F88F
:10029000014B08B1A042F8D01CB1002802D06D1C5F
:1002A000F1E7284630BD421C10F8011B0029FBD1A4
:1002B000801A704710B5002200E0521C835C8C5CF1
:1002C000A34201D1002BF8D1D8B2E1B2401A10BD3F
:1002D000CBB203E00178994203D0401C521EF9D200
:1002E0000020704730B504460020034600E05B1C48
:1002F000934203D2E05CCD5C401BF8D030BD2DE9C9
:10030000F04791460F4680460446002614F8015BEC
:100310002DB1FFF785FF0068405DC007F6D12B2D9A
:1003200002D02D2D18D0641E4A463946204600F0D2
:1003300003FB27B13968A14201D1C7F800807105DC
:100340004FF002040BD54042002803DD05F04AFCC3
:100350000460A007BDE8F08746F48066E4E7002863
:10036000F8DA05F03FFC04606FF00040F2E7F0B40B
:1003700080EA0102D40F4200B2EB410F02D20246E2
:10038000084611464A0042D0C30DDDB2C1F3C75240
:10039000AD1A202D35DAC1F3160141F4000204B183
:1003A0005242C5F1200602FA06F12A411044B3EB8D
:1003B000D05F23D0C4B1012DA0EBC35009DCF0BC49
:1003C0004FF0004202EAC352DBB200F5000000F039
:1003D0005ABB400000F1807000EBC350A0F1807068
:1003E00040EAD170490009E0490841EAC071A0EB38
:1003F000C35000F50000400800EBC350F0BC00F013
:1004000039BB6142012202EB4101001BF6E7F0BC5F
:10041000704781F00041AAE780F00040A7E780EA3A
:10042000010210B502F00043400022D04A001FD064
:10043000010E01EB1261C0F35600C2F3560240F404
:10044000000042F40002A0FB022000047F391404E3
:1004500000D0401C50EA124001D44000491EC2B2F4
:100460000C0604EBD010401C4008802A02D003E0A8
:10047000002010BD20F00100002900DA0020184300
:1004800010BD2DE9FE4F804681EA0300C00F0C46E7
:10049000009021F0004123F00045B8EB0200A94193
:1004A00005D24046214690461C460B46024623F0A4
:1004B0000040104347D0270DC7F30A00C3F30A5189
:1004C0000290401A019040286BDAC3F3130040F405
:1004D000801B0098924620B10023D2EB030A63EB05
:1004E0000B0B01985946C0F14002504600F003FA48
:1004F00006460D4650465946019A00F00BFA10EB9D
:1005000008006141002487EA115284EAE7731A4324
:1005100040D0009A62B3019A012A4FEA075215DCD3
:10052000001B61EB02014FF0004202EA0752CDE9E5
:100530000042001C41F5801132462B4600F0E0FAE3
:1005400003B0BDE8F08F40462146F9E7001B61EBA0
:100550000201001C41F5801300185B412018A2F530
:10056000001747EB030140EAD570B6196D4111E061
:100570006D084FEA360645EAC0754FEA0752001B80
:1005800061EB0201001C41F5801149084FEA30007F
:100590000019514132462B4603B0BDE8F04F00F040
:1005A000A0BA0098012240000023D0EB020263EBC6
:1005B000E073009821464FEAE074B8EB000061EB6D
:1005C0000401E9E783F000435BE781F0004158E76D
:1005D0002DE9FE4F81EA030404F0004421F00041BC
:1005E00000944FF0000B23F0004350EA01045ED06A
:1005F00052EA03045BD0C3F30A54C1F30A552C44F6
:10060000A4F2F3340194A0FB0254C1F3130141F4AA
:100610008011C3F3130343F4801301FB024400FB76
:10062000034E840A970A44EA815447EA8357A4FB9D
:10063000076802958D0A05FB07854FEA932C04FB9A
:100640000C542705029D4FEA065847EA1637B5EBCA
:1006500008056EEB070C870E920E47EA811742EAF7
:100660008312A7FB0201B6EB0B0164EB00042B0D18
:1006700043EA0C335E1844EB1C50DA465146E7FB64
:100680000201C5F313044FEA0B3343EA14534FEA54
:100690000432019C43EA0603A4F10C040294009C7A
:1006A000CDE900B400F02CFA03B0BDE8F08F0020D3
:1006B0000146F9E72DE9F04D81EA030404F0004B0F
:1006C00021F0004514464FF0000A23F0004150EAA3
:1006D000050220D054EA01021DD0C5F30A57024694
:1006E000C5F31303C1F31300C1F30A5640F4801598
:1006F00043F48013A7EB0608101BD64608F2FD381A
:1007000073EB050002D308F1010801E092185B4188
:10071000B8F1000F03DA00200146BDE8F08D00209B
:100720004FF48011064684460EE0171B73EB050755
:1007300005D3121B63EB050306434CEA010C490881
:100740004FEA300092185B4150EA0107EDD152EABE
:10075000030012D082EA040083EA0501084305D0B1
:10076000101BAB4106D20122002306E000224FF00D
:10077000004302E06FF0010253101AEB06004CEB4D
:10078000085110EB0A0041EB0B01BDE8F04D00F001
:10079000A8B9C10F80EAE0700844CA079623002177
:1007A00000F071B90EB5C10F80EAE0700844CA07C5
:1007B000002140F233438DE80E000A460B4600F05C
:1007C0009FF903B000BD00F0004220F00040C10DD1
:1007D000C0F3160040F400007F2901DA00207047C2
:1007E000962903DCC1F19601C84001E096398840A2
:1007F000002AF4D04042704770B5C1F30A5201F0AC
:1008000000450024C1F3130140F2FF3341F480118D
:100810009A4201DA002070BD40F233439A42A2F2BC
:10082000334203DC5242FFF7EBFC00E090402C43E4
:10083000F1D0404270BD000030B5041E71F10004DB
:1008400004DB4FF00044404264EB0101141E73F1DD
:10085000000405DB1C464FF00043524263EB0403E7
:10086000994208BF904230BD30B50B46014600208A
:100870002022012409E021FA02F59D4205D303FA62
:1008800002F5491B04FA02F52844151EA2F10102E3
:10089000F1DC30BD2DE9F05F0546002092469B4615
:1008A00088460646814640241BE028464146474686
:1008B0002246FFF7A5FC53465A46C01A914110D371
:1008C00011461846224600F016F82D1A67EB01086B
:1008D0004F4622460120002100F00DF817EB0009D9
:1008E0004E41201EA4F10104DFDC484631462A4671
:1008F0004346BDE8F09F202A04DB203A00FA02F1CB
:10090000002070479140C2F1200320FA03F31943FD
:1009100090407047202A06DBCB17203A41FA02F0BC
:1009200043EAE07306E041FA02F3D040C2F120024C
:1009300091400843194670472DE9F05F82460078E0
:10094000002715468B460AF10104B946302801D02C
:100950009DB113E014F8010B0127782803D0582823
:1009600001D045B10AE00DB1102D07D100271025A7
:1009700014F8010B02E0082500E00A250026B04625
:100980000EE005FB080005FB06F1012701EB104610
:100990001FFA80F8B6F5803F00D3B94614F8010B72
:1009A000294600F025F90028EBDABBF1000F05D04D
:1009B0000FB1641E00E05446CBF80040B9F1000FBF
:1009C00006D005F00FF902210160C81EBDE8F09FB6
:1009D00048EA0640FAE700000FB4002300B589B0EA
:1009E0000CA900910B996FF00042CB601E4B06934F
:1009F0001E4B07930423CDE901321D4A089202469B
:100A00006B46002000F082F909B05DF814FB70B568
:100A100086B006464FF0FF300091CDE9010100207D
:100A200015460C4604903246694604A8FFF7D4FFE9
:100A300002460498211825B108B1084600E0204676
:100A40002860049800280DD0002A02DD0098884212
:100A500008D0081B0094CDE901043246694604A879
:100A6000FFF7BAFF06B070BD450F0008630F00081E
:100A7000290200080029A8BF7047401C490008BF90
:100A800020F00100704710B4B0FA80FC00FA0CF0BE
:100A900050EA010404BF10BC704749B1CCF12004F6
:100AA00021FA04F411FA0CF118BF01212143084383
:100AB000A3EB0C01CB1D4FEA00614FEA102042BFAF
:100AC000002010BC704700EBC35010440029A4BFA5
:100AD00010BC7047401C490008BF20F0010010BC4A
:100AE000704710B5141E73F1000408DA401C41F180
:100AF000000192185B411A4301D120F0010010BDA2
:100B00002DE9F04D92469B4611B1B1FA81F202E017
:100B1000B0FA80F220329046FFF7EDFE04460F4611
:100B200040EA0A0041EA0B0153465A46084313D0F3
:100B3000114653EA010019D0C8F140025046FFF7B0
:100B40005FFB05460E46504659464246FFF7D3FE28
:100B5000084305D0012004E020463946BDE8F08D69
:100B60000020054346EAE0762C4337430A986305A4
:100B7000E40AA0EB08000022FD0A44EA47540A30C8
:100B800002D500200146E9E7010510196941DDE9B8
:100B9000084500196941BDE8F04DA2E7C1F30A52CA
:100BA000C1F3130140F2FF3341F480119A4202DA9B
:100BB00000200146704740F233439A42A2F233428A
:100BC00002DC5242FFF71CBBFFF795BE064C074DF7
:100BD00006E0E06840F0010394E80700984710340D
:100BE000AC42F6D3FFF7A8FA80980008A098000856
:100BF0003A2800D2303820F02002412A01D3A2F155
:100C00003700884201D34FF0FF3070472DE9FF4F86
:100C1000087881B09946FF2805D0491C2D2804D0BA
:100C20000024002308E000230BE00124F9E703EB94
:100C3000830300EB4303491C0878FF28F7D104B174
:100C40005B4200200090147801462D2C01D02B2C03
:100C500004D1521C2D2C12D00024009400251678AB
:100C6000FF2E0ED00A24A0FB04C801FB048100273C
:100C700000FB0711521C16EB0C006941EFE7012441
:100C8000EBE7994450EA01020ED00024AA4D264613
:100C9000DFF8A88200F076F982468B46B9F10000B1
:100CA00009DAC9F100071BE001980021C0E9001131
:100CB00005B0BDE8F08F074612E0F80707D02246DE
:100CC0002B4630464146FFF783FC064688462246BF
:100CD0002B4610461946FFF77BFC04460D467F1055
:100CE000002FEAD1B9F1000F32464346504659462B
:100CF00002DAFFF7DFFC01E0FFF76AFC009A0AB1B5
:100D000081F00041019AC2E90001D1E72DE9FF4FCE
:100D10001F468DB0D7E901464FF0FF382E204546DB
:100D20004FF000090B90B9696D1C0E988847396A1D
:100D3000824688470028F6D1BAF1FF3F0AD024F452
:100D4000D064002E11DDBAF12B0F08D0BAF12D0FAF
:100D50000BD102E0404611B0ABE744F48064B969BE
:100D60006D1C0E9888478246761E6946600501D53F
:100D70002D2000E02B208DF8000001F1010B0DF17A
:100D8000200809E0B9696D1C0E98884782460F98C3
:100D900044F40074761E0560002E02DDBAF1300FB7
:100DA000F0D00B998A453ED144F0800406E00F99BB
:100DB000681CA9F1010944F400740860B9696D1C4C
:100DC000761E0E98884782463028F0D02BE00B998B
:100DD0008A4505D1200603D444F08004761E18E02D
:100DE000504604F0D5FF08B30DF11301761E44F40C
:100DF00000748B4508D2AAF130000BF8010B2006D5
:100E000007D5A9F1010003E0200602D409F1010091
:100E10008146A00502D50F99681C0860B9696D1C50
:100E20000E9888478246002ED1DC53E0002E51DD1B
:100E3000BAF1650F02D0BAF1450F4BD1A00549D5E3
:100E4000B9696D1C24F44074761E0E98884782465A
:100E5000002E0CDD2B2804D0BAF12D0F07D144F45D
:100E60008074B9696D1C0E9888478246761EE0052D
:100E700001D52D2100E02B2108F8011BCDF82C8095
:100E800021E00DF12901761E44F4007488450CD24E
:100E9000AAF1300010F0FF0088F8000002D10B9991
:100EA000884509D908F1010806E0E00501D5244884
:100EB00001E042F20F708146B9696D1C0E988847B7
:100EC00082460F980560002E04DD504604F060FF56
:100ED0000028D6D1F9690E988847FF208BF80000CA
:100EE00088F800000020069007904B466A4608A943
:100EF00006A8FFF78BFEA00502D46FF001002AE7D9
:100F000014F0240F0AD0E00714D1DDE90612386886
:100F1000031D3B600068C0E900120BE0DDE906013B
:100F200000F03CF80146E00704D13868021D3A6041
:100F30000068016028460EE7000024400000F03FF2
:100F4000F1D8FFFF426842B1016811F8013B23B1BB
:100F5000521EC0E90012184670470121C160881E68
:100F6000704742685AB1C368016843B983688B42CD
:100F700005D0491E521CC0E90012002070474FF0F6
:100F8000FF3070470EB540F2334202920022CDE9A5
:100F900000221346FFF7B4FD03B000BD01F000438B
:100FA00030B421F0004150EA010206D00A0DA2F54A
:100FB0006072C1F31301002A02DC30BC00207047CC
:100FC000440F44EAC104C100E01830BC00EBC25039
:100FD000FFF750BD70B58C1810F8015B15F00703D2
:100FE00001D110F8013B2A1106D110F8012B03E0C2
:100FF00010F8016B01F8016B5B1EF9D12B0705D4CA
:101000000023521E0DD401F8013BFAE710F8013B12
:10101000CB1A921C03E013F8015B01F8015B521E2E
:10102000F9D5A142D8D3002070BD000070B50446A8
:1010300000688168C943C9071CD1816821F001019A
:10104000816001F07BFB05460FE000BF01F076FBFD
:10105000401B022809D9A06A40F01000A062E06A93
:1010600040F00100E062012070BD20688068C0434C
:10107000C007EBD0002070BDF8B5002604460096EE
:1010800000688168C943C90728D0816841F001011F
:101090008160134813490068B0FBF1F000E0401E86
:1010A00000900028FBD101F049FB054611E000BF8C
:1010B00001F044FB401B02280BD9A06A40F010004D
:1010C000A062E06A40F00100E06284F82460012040
:1010D000F8BD20688068C043C007E9D10020F8BD92
:1010E0005001002040420F0000224FF4807101485F
:1010F00001F01FBB0008014001221102014801F06C
:1011000018BB000000080140FEE7000008B500F031
:101110004FF90848816941F010018161806901221D
:1011200000F010000090BDE808408021024801F066
:1011300000BB000000100240001001402DE9FF47F5
:10114000002506462C4600F033F9DFF860820022C5
:1011500080214746404601F0ECFA142007F012FACD
:1011600001228021384601F0E4FA0020019003902A
:1011700080200090012002906946384601F0E0F995
:1011800007F08CFD00F10A0704E000BF07F086FDC0
:10119000B84276D88021404601F0C6FA0128F5D041
:1011A00004E000BF07F07AFDB842F2D88021404643
:1011B00001F0BAFA0028F5D004E000BF07F06EFD98
:1011C000B842E6D88021404601F0AEFA0128F5D0B9
:1011D0004FF0000904E06D1C07F060FDB842D8D85C
:1011E0008021404601F0A0FA0028F4D004E0641CFD
:1011F00007F054FDB842CCD88021404601F094FA63
:101200000128F4D030784006000E3070AC4202D98C
:1012100040F001003070002509F1010000F0FF09E5
:101220002C46B9F1080FDBD3A94604E06D1C07F08A
:1012300035FDB84225D88021404601F075FA0028D6
:10124000F4D004E0641C07F029FDB84219D88021CD
:10125000404601F069FA0128F4D070784006000E8B
:101260007070AC4202D940F001007070002509F1A5
:10127000010000F0FF092C46B9F1080FDBD3A946A5
:1012800005E083E06D1C07F009FDB8427ED880219F
:10129000404601F049FA0028F4D004E0641C07F04D
:1012A000FDFCB8427FD88021404601F03DFA01287C
:1012B000F4D0B0784006000EB070AC4202D940F0D5
:1012C0000100B070002509F1010000F0FF092C4673
:1012D000B9F1080FDBD3A94604E06D1C07F0DEFC72
:1012E000B84260D88021404601F01EFA0028F4D0B0
:1012F00004E0641C07F0D2FCB84254D88021404678
:1013000001F012FA0128F4D0F0784006000EF070D7
:10131000AC4202D940F00100F070002509F1010053
:1013200000F0FF092C46B9F1080FDBD3A94604E011
:101330006D1C07F0B3FCB84235D88021404601F05F
:10134000F3F90028F4D004E0641C07F0A7FCB842CD
:1013500029D88021404601F0E7F90128F4D03079FE
:101360004006000E3071AC4202D940F001003071ED
:10137000002509F1010000F0FF092C46B9F1080F22
:10138000DBD3307900280BD0317800E00BE07278A5
:10139000F3781144B2781A441144814203D10120F8
:1013A00004B0BDE8F0870020FAE70000001001401B
:1013B0001FB50020029080200090012001900220A3
:1013C00003906946014801F0BBF81FBD00100140C1
:1013D000014800F0D9BE00004C0A002030B590F85A
:1013E00040500124AC40C56B6C6004686360436886
:1013F000102B036803D099600068C26030BD9A600A
:101400000068C16030BD704701B5009801E0401E22
:1014100000900028FBD108BD2DE9F041154C0E4687
:101420001F46B4F8001415466FF30E01A4F800141B
:10143000024611A1124804F04BF956EA050015D0F6
:10144000384606F0F9FCB4F800140020C1F30E0190
:1014500060542EB1314625B12046FEF712FF28B95F
:1014600029460448FEF70DFF002800D00120BDE802
:10147000F0810000BC02002025730D0A000000006E
:101480000048004010B5084C01221102204601F02E
:1014900050F901225102204601F04BF9BDE81040FD
:1014A0004FF47A7006F0C8BC000C014010B54FF440
:1014B0007A7006F0C1FC05A1054804F009F9BDE801
:1014C00010404FF4FA7006F0B7BC00002B2B2B0035
:1014D0000048004001220249024802F0C3B800005F
:1014E000440000200C0A002000B59FB00B460246C5
:1014F00006A1684604F04CFB41F28833002208A1A3
:101500006846FFF789FF1FB000BD000041542B4320
:10151000574A41503D222573222C22257322000078
:101520004F4B0000F0B5B9B00F4606461D461446B5
:10153000642101A8FEF79AFE16B1012E0BD103E03B
:101540003B4610A2009402E03B460FA200940FA17C
:1015500001A804F01DFB052D06D201AB2A460FA100
:101560001AA804F015FB04E001AA11A11AA804F0BE
:101570000FFB4FF47A6312A215A11AA8FFF74CFFD4
:1015800039B0F0BD54435000554450002225732219
:101590002C222573222C25730000000041542B437C
:1015A000495053544152543D25642C25730000008A
:1015B00041542B43495053544152543D257300002C
:1015C000414C5245415920434F4E4E454354000033
:1015D0004F4B000040F6C41328B1012807D0022861
:1015E00009D00020704706A208A109A006E004A2C5
:1015F00006A10AA002E002A204A10BA0FFF70CBF03
:101600006E6F206368616E67650000004F4B0000DD
:1016100041542B43574D4F44453D310041542B43DA
:10162000574D4F44453D320041542B43574D4F4495
:10163000453D330030B585B01D460C4638B10A46ED
:1016400011A1124804F044F8012005B030BD052D69
:1016500006D2931C2A460EA1684604F099FA04E0CB
:1016600010A16846921C04F093FA4FF47A752B4649
:10167000002210A16846FFF7CFFE2B4600220EA1E4
:101680002046FFF7C9FEE0E7257300000048004050
:1016900041542B43495053454E443D25642C256409
:1016A0000000000041542B43495053454E443D2512
:1016B000640000003E20000053454E44204F4B0084
:1016C000074810B50168C90704D001210160084628
:1016D00000F028FFBDE81040012000F025BF000009
:1016E00014040140074910B508684FF40054800401
:1016F00003D520460C6000F015FF2046BDE81040E1
:1017000000F012BF140401407047000030B5B3F57B
:10171000804F05D06FF0704140F82210002030BD9E
:101720008C690B688D6823434C688989240144EADD
:101730000524234343EA014150F82230014C234061
:101740001943E9E70000F0CF30B50A6850F82230BD
:1017500023F0010340F822308C68204B4A68082CA3
:101760001ED02243D1E903452C4322434C69224336
:101770008C692243CC6922430C6A22434C6A22437F
:101780008C6A2243CC6A22430C6B0968224350F8CE
:1017900021401C4052EA040240F82120002030BDC4
:1017A000D1E9034542F008022C4322434C6922430D
:1017B0008C692243CC6922430C6A22434C6A22433F
:1017C0008C6A2243CC6A22430C6B0968224350F88E
:1017D00021401C40224342F04002DDE78100F7FF38
:1017E00030B5D1E9003443EA04138C688D892402B2
:1017F00044EA054423430C8A094D00EB820005EBC3
:10180000045423430C7D6D0105EB04648969234373
:101810000B43416801F040410B434360002030BD61
:101820000000F0FF2DE9FF5F324D0646DDE90EB7FF
:1018300068789C4614468A464FF000084FF4807240
:101840004FF0010938B123462B49604605F084FA70
:1018500085F8018008E0287840B123462749604692
:1018600005F07AFA85F8008087F80090002F3ED0C6
:10187000012308225946201D00F09BF8D4E91001ED
:1018800005F0C6F9C6E90001D4E9120105F0C0F976
:10189000CAE90001CDE90001D6E9002318A004F04F
:1018A0004FF9D4E914231DA004F04AF9D4E9182310
:1018B0001EA004F045F9D4E91A2320A004F040F951
:1018C000D4E91F1222A004F03BF9D4E9DA1228A0CF
:1018D00004F036F9D4E90E01CDE90201D4E90C0196
:1018E000CDE90001D4E90A2329A004F029F9BDE8D3
:1018F000FF9F000045000020BE060020BE0700201C
:101900006C617469747564653A2025662C206C6F6F
:101910006E6769747564652025660A00616C746978
:10192000747564653A202566206D0A0053706565FC
:10193000643A202566206B6D2F680A004469726541
:101940006374696F6E3A202566206465670A00003B
:101950005573696E67204750533A2025642C2056F2
:10196000697369626C65204750533A2025640A0008
:101970005573696E67204244203A25642C205669CD
:101980007369626C652042443A2025640A000000B5
:1019900050444F503A2025662C2048444F503A205E
:1019A00025662C2056444F503A2025660A0A00002E
:1019B00070472DE9F0470F46002A77D00C2A75D8DA
:1019C000D0E9031CD0E90145D0F814900668E2463E
:1019D00093B38818182801D280466FE0A0F1180848
:1019E000012C16D0032C14D0052C12D0072C10D0AB
:1019F000082C0ED00A2C0CD0042C0DD0062C0BD0A9
:101A0000092C09D00B2C07D0022C0AD00C2C14D096
:101A100054E01F2D13D301E01E2D10D30125641CAB
:101A20004CE01D2D05D01C2D09D1F0B201F045FF71
:101A300028B90125032441E007E01F2D01D26D1CC8
:101A40003CE001252C46761C38E09142A1EB0200D7
:101A5000C2D200F11808022C16D0042C14D0062C87
:101A600012D0082C10D0092C0ED00B2C0CD0052C29
:101A70000ED0072C0CD00A2C0AD00C2C08D0032C2A
:101A80000BD0012C13D019E0012D12D81F2502E034
:101A9000012D0ED81E25641E10E0012D09D1F0B2D3
:101AA00001F00BFF28B91C25022407E00CE0012DF2
:101AB00001D96D1E02E01F250C24761E381DC7F8C3
:101AC00014903E6080E83005BDE8F08770B50646AA
:101AD0000D4609A004F034F8002405E0315D09A0AA
:101AE00004F02EF8641CA4B2AC42F7DBBDE87040F1
:101AF00005A004F025B800000D0A496E666F3A2073
:101B000000000000256300000A0000004FF400728E
:101B10000149024801F05ABDBE060020CC09002050
:101B200070470000F8B500250446009590F82400A1
:101B3000012808D0012084F824002046FFF776FA17
:101B4000060002D04BE00220F8BDA06A20F48850C5
:101B500040F00200A062022000F0ACFE22490968B9
:101B6000B1FBF0F0400000E0401E00900028FBD1E7
:101B70002046FFF781FA2068816841F00801816002
:101B800000F0DCFD074604E000F0D8FDC01B0A2889
:101B900011D8206880680007F6D42068816841F079
:101BA0000401816000F0CAFD07460EE000F0C6FDAA
:101BB000C01B0A2809D9A06A20F0020040F01000DA
:101BC000A06284F824500120F8BD20688068400796
:101BD000ECD4A06A20F0020040F00100A06284F87A
:101BE00024503046F8BD000050010020F8B5002414
:101BF000009490F824202546012A12D0012280F872
:101C000024204A681F23072A0DD20668776B521ECC
:101C100002EB820293409F430B6893401F4377631C
:101C200019E00220F8BD06680D2A0AD2376BD21FD0
:101C300002EB820293409F430B6893401F4337633C
:101C400009E0F76A0D3A02EB820293409F430B686A
:101C500093401F43F7620A68072306680A2A0AD3DB
:101C6000F7680A3A02EB420293409F438B68934025
:101C70001F43F76008E0376902EB420293409F433D
:101C80008B6893401F4337610A68102A01D0112ADC
:101C900020D1124B02689A4217D193681B0219D4C3
:101CA000936843F4000393600968102912D10C492A
:101CB0000C4A0968B1FBF2F101EB8101490000E037
:101CC000491E00910029FBD104E0816A41F0200106
:101CD0008162012480F824502046F8BD0024014090
:101CE0005001002040420F000068C06C70470000A7
:101CF0002DE9F04104004FF000057FD0A06A0026D6
:101D000028B9E66284F82460204600F081F8204675
:101D1000FFF78CF9A16AC90600D420B1A06A40F08F
:101D20001000A0626AE0A16A21F4885141F002012A
:101D3000A162334923688B42E16904D1B1F5402F98
:101D400001D14FF40021E7684FF4807C41EA47025B
:101D500061680A43A168614508D0012906D00021C5
:101D6000D4F814E0BEF1010F02D00AE06146F7E7B3
:101D7000C7B1A76A47F02007A762E76A47F00107E3
:101D8000E7625F6827F469470F435F6023689968DB
:101D90001C4F394011439960A16861450BD001295E
:101DA00009D00CE0DFF860E0A7690EEB47370F437E
:101DB00047F40061E5E7218A0D05A5F58015216846
:101DC000CB6A23F470032B43CB62216889680F4BE5
:101DD0001940914208D1E662A16A21F0020141F066
:101DE0000101A162BDE8F081A06A20F0020040F08C
:101DF0001000A062E06A40F00100E0620120F1E71B
:101E0000003C0140FDF7E1FF00E0FFFFFE0E1FFF79
:101E100000B585B000210091019102910391006805
:101E20000E49884218D10E48816941F400718161E0
:101E3000816901F400710491816941F010018161AF
:101E40008069694600F0100004900420009003208F
:101E50000190044800F074FB05B000BD002401406F
:101E600000100240001001402DE9F84300260D4605
:101E70000446009600F062FC804620688168C9052F
:101E800008D5A06A40F02000A06284F824600120F8
:101E9000BDE8F8834168C90503D4C06A10F4700F27
:101EA00026D0022000F006FD38490968B1FBF0F7A2
:101EB0002068036936490B424FEA61014FEAA112DB
:101EC0001BD1C3684FEA611C13EA0C0F15D10369DB
:101ED0000B4221D1C06810421ED114201FE0681CA3
:101EE00006D045B300F02AFCA0EB0800A84222D897
:101EF000206800688007F2D52AE003690B4202D10E
:101F0000C168114206D0026922490A4206D1C0685E
:101F1000084203D1542002E0292000E0FC2047437E
:101F2000009813E0681C0ED02DB100F007FCA0EB68
:101F30000800A84207D9A06A40F00400A06284F813
:101F400024600320A4E70098401C0090B842E9D325
:101F500021686FF012000860A06A40F40070A0626F
:101F600020688068C0F3424007280CD1E06850B96F
:101F7000A06A20F48070A062A06AC00403D4A06AA2
:101F800040F00100A062002082E700005001002024
:101F9000244992244992240070B5044690F8240004
:101FA00001280DD0012084F824002046FFF764F8B2
:101FB00002004FF0000005D084F82400104670BDE8
:101FC000022070BDA16A40F20123994341F480715F
:101FD000A1621F4D23681F49AB4218D10E6816F449
:101FE000702F14D0A66A46F48016A6620E68760595
:101FF00005D5A66A26F4005646F48056A662A66A5F
:10200000F6040AD5E66A26F00606E66206E0A66A47
:1020100026F48016A6625E68E9E7E06284F8240090
:102020006FF00200186020688368C3F34243072BF7
:1020300005D1A84208D1096811F4702F04D0816835
:1020400041F480118160B9E7816841F4A001F9E7AA
:1020500000280140042401402DE9F05F90F8211090
:102060000024022903D004218163012485E0016852
:102070000A6822F00E020A6001680A6822F0010272
:102080000A603F4E3E4FB215DFF8F4C0DFF8F09023
:10209000DFF8ECA0DFF8E8B0DFF8E4E00168783FB3
:1020A00013011502ACF1640CA9F15009AAF13C0A24
:1020B000ABF1280BAEF1140E4FF48018B14227D9C2
:1020C000B9420ED0614512D049451DD0514518D0B6
:1020D000594518D0714501D1424615E0294EB1420B
:1020E00001D1012210E0274E1436B14201D1102255
:1020F0000AE0244E2836B14206D0224A3C329142B0
:1021000001D11A4600E02A461E49091F0A602BE049
:10211000B94213D0614517D0494522D051451DD051
:1021200059451DD0714501D142461AE0B14202D154
:102130004FF0807215E0134EB14201D1012210E040
:10214000104E1436B14201D110220AE00D4E28364D
:10215000B14206D00B4A3C32914201D11A4600E00E
:102160002A46074980394A60012180F82110002160
:1021700080F82010416B01B188472046BDE8F09FF0
:1021800080000240080402402DE9F05FC16B0A683C
:1021900001680B68046C4FF0040808FA04F8844DD9
:1021A000844E854FDFF814C2DFF81492DFF814A2D2
:1021B000DFF814B2DFF814E218EA020F65D05FEA24
:1021C000437862D50A68920603D40A6822F00402B2
:1021D0000A60DFF8F0814FF48062016808F11408AA
:1021E00013011402414524D9A9420DD0B1420FD0A8
:1021F000B9421AD0614515D0494515D0514501D194
:10220000120312E0594501D104220EE0714501D1BB
:1022100040220AE06D4D1435A94206D06B4A28329F
:10222000914201D11A4600E022466749091F0A601F
:1022300029E0A94213D0B14215D0B94220D061455E
:102240001BD049451BD0514502D14FF4800217E005
:10225000414502D14FF0806212E0594501D104227C
:102260000EE0714501D140220AE0584D1435A942D3
:1022700006D0564A2832914201D11A4600E0224641
:102280004B4908394A60C16A71E04FF0020808FA08
:1022900004F818EA020F70D05FEA83786DD50A68F7
:1022A000920606D40A6822F00A020A60012180F828
:1022B0002110DFF810814FF40072016808F1140852
:1022C00013011402414524D9A9420DD0B1420FD0C7
:1022D000B9421AD0614515D0494515D0514501D1B3
:1022E000120312E0594501D102220EE0714501D1DD
:1022F00020220AE0354D1435A94206D0334A28324F
:10230000914201D11A4600E022462F49091F0A6076
:1023100029E0A94213D0B14215D0B94220D061457D
:102320001BD049451BD0514502D14FF4001217E094
:10233000414502D14FF0007212E0594501D102220D
:102340000EE0714501D120220AE0204D1435A9424A
:1023500006D01E4A2832914201D11A4600E0224698
:10236000134908394A60002180F82010816A002949
:102370001CD0BDE8F05F0847FFE70825A5401542DF
:1023800014D01A0712D50A6822F00E020A6090F8DB
:102390004020C36B012101FA02F25A60816380F888
:1023A0002110002180F82010016BE0E7BDE8F09FCC
:1023B000080002401C00024030000240440002407D
:1023C000580002406C000240080402401C04024015
:1023D00030B560B11A4B026814219A4209D2194BE8
:1023E0001344B3FBF1F18900016417490AE00120AD
:1023F00030BD134B5B421344B3FBF1F18900016420
:102400000F490839C163022180F82110136843F68F
:10241000F0718B43F0E901142143D0E902452C43CC
:1024200021430469214344692143846921431943B9
:10243000116000214163012242770177084630BDD7
:1024400008040240F8FFFDBF0000024070B50446DA
:1024500090F82000002501280CD0012084F82000ED
:1024600094F821600020012E06D084F82000022577
:10247000284670BD022070BD022684F82160A0634A
:102480002068066826F0010606602046FEF7A6FFD3
:10249000E06A00282068016802D041F00E0106E0E1
:1024A00021F0040101602068016841F00A01016027
:1024B0002068016841F001010160D9E730B585B0BD
:1024C00000200090019002900390124801680029BA
:1024D0001ED1012101601048416941F480714161C0
:1024E0004069022400F4807004904FF68070CDE9BA
:1024F0000004032569460395084800F021F84CF6CE
:10250000B370CDE9000469460395054800F018F85A
:1025100005B030BD38010020001002400018014015
:102520000014014070470000044910B50A680242D7
:1025300002D00860FFF7F6FF10BD00001404014050
:102540002DE9F84FDFF8B8A100220AF1040B144678
:1025500001274FF00F090BF1040E00BF0B6807FABB
:1025600004F52B40AB4274D1DFF898C14E68A6EB5E
:102570000C0866452BD00DDC032E34D005DC36B3B9
:10258000012E19D0022E2FD11BE0112E16D0122EA3
:102590002AD119E0B8F5881F19D006DCB8F5803FBC
:1025A00015D0B8F5801F1FD111E0B8F5001F0ED06F
:1025B000B8F5041F18D10AE0CA6815E0CA68121DF0
:1025C00012E0CA6808320FE0CA680C320CE08A6870
:1025D0002AB1012A4FF0080203D0456104E0042229
:1025E00002E0056100E00022FF2B01D8064601E071
:1025F00000F104064FEA840501D9A5F12005D6F8BB
:1026000000C009FA05F82CEA080C02FA05F54CEAB4
:10261000050CC6F800C04D68ED006AD53A4DAE69AC
:1026200046F00106AE61AD6924F0030605F0010530
:102630000095364D06EB050CDCF80850A6074FEA6E
:10264000167809FA08F6B543314EB04202D1002699
:102650001AE04EE02F4EB04201D1012614E02E4E7A
:10266000B04201D102260FE02C4EB04201D1032628
:102670000AE02B4EB04201D1042605E0294EB042BB
:1026800001D1052600E0062606FA08F62E43CCF80E
:1026900008604D68DAF80060ED03554601D51E4329
:1026A00000E09E432E604D68AD0305D5DBF8006069
:1026B0001E43CBF8006004E0DBF800509D43CBF8EC
:1026C00000504D68DEF80060ED02754601D51E43EE
:1026D00000E09E432E604D68AD0205D5084D0C35D7
:1026E0002E681E432E6004E0054E0C3635689D436F
:1026F0003560641C102CFFF431AFBDE8F88F00008A
:1027000000040140000011100010024000000140D0
:1027100000080140000C014000100140001401407D
:1027200000180140001C01408068084000D00120D2
:1027300070470AB1016170470904FBE701488068EE
:10274000704700004401002002488168027811446B
:102750008160704744010020074810B5016841F0CE
:1027600010010160032000F093F8002000F006F84B
:1027700000F03EF8002010BD0020024000B50146E8
:1027800087B000221D2000F063F81D2000F054F8EF
:102790001348C16941F00201C161C06905A900F097
:1027A00002000690684600F01BFA00F039FA0D4965
:1027B0004000B0FBF1F10D480B4A491E0260416038
:1027C00040F2E7320021C0E90321816000F0A9FC5A
:1027D00010B1012007B000BD044800F0BEFCF9E7CD
:1027E0000010024040420F0000040040900A002008
:1027F0000F4808B5816941F001018161816901F0EB
:1028000001010091C16941F08051C161C06900229C
:1028100000F0805000900F21901E00F019F805483C
:10282000416821F0E06141F00071416008BD0000A5
:10283000001002400000014000F01F020121914001
:102840004009800000F1E020C0F80011704700004E
:10285000F0B40E4B1B680C46C3F30223C3F107050B
:10286000042D00D90425191D072901D2002300E0F9
:10287000DB1E012606FA05F1491E214099409E40C3
:10288000761E16403143F0BC01F00EBD0CED00E0A9
:10289000064900F0070208684FF6FF03184040EAB7
:1028A0000220034A10430860704700000CED00E06E
:1028B0000000FA0510B52CA401461DCC86B08DE8A9
:1028C0001D002DA02D4C00680490002004292FD05D
:1028D0000BDC01292FD0022928D100F0B1F9616861
:1028E000C1F38131491C49001EE0082920D010297C
:1028F0001CD161682268D20118D5C1F38342C90393
:102900001DF8020009D5616804AAC1F34041515C79
:102910001B4AB2FBF1F1484301E01A4948436168A0
:10292000490203D440000321B0FBF1F006B010BD12
:1029300000F096F9FAE7226AC2F30121012903D1D6
:10294000920701D5C803F1E7022905D1626A92070F
:1029500002D549F64040E9E70329E7D12168890318
:10296000E4D54FF22440E1E7020304050607080915
:102970000A0B0C0D0E0F1010010200000010024097
:1029800000127A0000093D002DE9F8430546007861
:10299000354CC00754D0E0690026C00008D4E06977
:1029A00040F08050E061E069012600F08050009026
:1029B0002E480168C90512D40168804641F480712F
:1029C0000160FFF7BBFE074605E000BFFFF7B6FE5C
:1029D000C01B642823D8D8F80000C005F6D5206AAB
:1029E00010F4407021D0A98801F4407181421CD0BC
:1029F000206A1F49012220F440700A6000220A6008
:102A00002062C00711D0FFF799FE074641F28838CF
:102A100008E000BFFFF792FEC11B414502D9032029
:102A2000BDE8F883206A8007F4D5206A696820F43D
:102A30004070084320621EB1E06920F08050E061E0
:102A40002878800705D56068A96820F440400843CD
:102A500060602878C00605D56068696920F4800048
:102A6000084360600020DBE7001002400070004077
:102A7000400442422DE9F047DFF8548105460E46F6
:102A8000D8F8000000F00700B0420CD2D8F80010CF
:102A900021F007013143C8F80010D8F8000000F019
:102AA0000700B0426FD128684A4C810712D5400711
:102AB00003D5606840F4E06060602878000703D5C3
:102AC000606840F4605060606068A96820F0F000C1
:102AD000084360602878C00744D06868012816D091
:102AE0002168022816D0890700294CDA616821F094
:102AF000030101436160FFF721FE6968074641F267
:102B0000883001290ED00229814618D026E021689C
:102B10008903E9E78901E7E7FFF710FEC11B494593
:102B200001D918E081466068C0F381000128F3D123
:102B300018E000BFFFF702FEC11B49450BD86068D3
:102B4000C0F381000228F5D10CE000BFFFF7F6FDCD
:102B5000C11B494502D90320BDE8F087606810F029
:102B60000C0FF3D1D8F80010404601F00701B14234
:102B70000BD9016821F0070131430160006800F0C2
:102B80000700B04201D00120E6E72878400705D5CC
:102B90006068E96820F4E060084360602878000716
:102BA00006D56068296920F4605040EAC100606081
:102BB00000F056F86168084AC1F30311515CC8403F
:102BC000064908600020FFF7D9FD0020C4E7000097
:102BD0000020024000100240DC9500085001002057
:102BE0000F2202600C4A536803F0030343605368EA
:102BF00003F0F0038360536803F4E063C36052683A
:102C00004FF4E06303EAD20202610448006800F076
:102C100007000860704700000010024000200240DA
:102C20000448054900684968044AC1F30221515C1F
:102C3000C84070475001002000100240EC95000889
:102C40000448054900684968044AC1F3C221515C3F
:102C5000C84070475001002000100240EC95000869
:102C600012A185B00FC98DE80F0014A0144A0068A6
:102C700004905168134801F00C03042B10D0082B6A
:102C80000ED1C1F38343C9031DF803000AD551686F
:102C900004AAC1F34041515C0A4A5043B0FBF1F031
:102CA00005B0704708494843FAE7000002030405ED
:102CB000060708090A0B0C0D0E0F10100102000088
:102CC0000010024000127A0000093D002DE9F84F83
:102CD00004460078B94DC00748D06868C0F3810049
:102CE000012807D06868C0F38100022809D168680C
:102CF000C00306D52868800338D5606800286FD0E7
:102D000034E06068B0F5803F0BD010B1B0F5A02F73
:102D100011D0286820F480302860286820F48020B2
:102D200002E0286840F480302860606888B1FFF7CE
:102D300005FD064609E0286840F480202860F0E799
:102D4000FFF7FCFC801B642875D828688003F7D542
:102D50000CE0FFF7F3FC064605E000BFFFF7EEFCD2
:102D6000801B6428F0D828688003F7D42078944E1C
:102D700080074FF001094FF000083BD5686810F05C
:102D80000C0F07D06868C0F38100022809D1686879
:102D9000C00306D42868800714D5206901281FD1F4
:102DA00010E02069B0B1C6F80090FFF7C7FC0746F5
:102DB00005E000BFFFF7C2FCC01B0228C4D828688A
:102DC0008007F7D52868616920F0F80040EAC10063
:102DD00028600FE0C6F80080FFF7B0FC074606E069
:102DE000E9E000BFFFF7AAFCC01B022823D828682F
:102DF0008007F7D4207800072CD57248A169D9B193
:102E0000C0F80090FFF79AFC074604E0FFF796FC35
:102E1000C01B02280FD8686A8007F7D56A484FF4AC
:102E2000FA510068B0FBF1F0009000BF0098411E1D
:102E30000091FAD20EE080E0C0F80080FFF77EFC3F
:102E4000074604E0FFF77AFCC01B022875D8686AC1
:102E50008007F7D42078400760D5E8690027C000D4
:102E600008D4E86940F08050E861E869012700F083
:102E70008050009055480168C90513D40168834605
:102E800041F480710160FFF759FC824606E000BF03
:102E9000FFF754FCA0EB0A0064284ED8DBF80000D2
:102EA000C005F5D5E06801280AD008B1052813D07F
:102EB000286A20F001002862286A20F0040002E05D
:102EC000286A40F001002862E06841F2883B98B12E
:102ED000FFF734FC82460BE0286A40F004002862C9
:102EE000EEE700BFFFF72AFCA0EB0A0159455AD8CC
:102EF000286A8007F6D50CE0FFF720FC824605E043
:102F0000FFF71CFCA0EB0A0159454CD8286A800742
:102F1000F6D41FB1E86920F08050E861E06988B319
:102F20006968C1F38101022945D00228C6F8608092
:102F300004D0FFF703FC044638E034E0FFF7FEFB63
:102F4000074604E0FFF7FAFBC01B02282BD82868CD
:102F50008001F7D4206AB0F5803F05D16868A16888
:102F600020F4003008436860D4E908010843696828
:102F700021F4741108436860C6F86090FFF7DEFB27
:102F8000044606E015E000BFFFF7D8FB001B02284F
:102F900009D828688001F7D50BE000BFFFF7CEFB0A
:102FA000001B022802D90320BDE8F88F28688001A1
:102FB000F4D40020F8E70120F6E7000000100240FA
:102FC0000000424280044242500100200070004054
:102FD00070B5040005D00025A56294F8510010B129
:102FE00004E0012070BD204600F034F8022084F88F
:102FF00051002068016821F040010160D4E901011D
:103000000843D4E903121143084361690843218B43
:1030100001F400710843E1690843216A0843A16A89
:10302000084321680860A069042101EA1040616A30
:103030000843216848602168E06A08612068C16926
:1030400021F40061C1616565012084F85100002010
:1030500070BD000030B585B0002400940194029446
:10306000039400681449884223D11448816941F4CB
:1030700080518161816901F480510491816941F03D
:103080000401816180690E4D00F004000490B020BD
:103090000090022001900320039069462846FFF724
:1030A0004FFA4020CDE90004694628460294FFF714
:1030B00047FA05B030BD000000300140001002406A
:1030C0000008014070B515460E46040003D094F880
:1030D0003D0010B107E0012070BD002084F83C00E5
:1030E000204600F01AF804F108012068FEF72CFBD6
:1030F0003146A2682068FEF773FBD4E90102294635
:10310000236BFEF703FBA168206850F8212042F0F2
:10311000010240F82120002070BDFFF7CFB97047B1
:10312000704710B5040003D094F83D0010B107E0DB
:10313000012010BD002084F83C00204600F00CF86F
:10314000022084F83D00211D206801F08FFB012042
:1031500084F83D00002010BD70470168CA6842F045
:103160000102CA600068016841F0010101600020AD
:103170007047704770B50446006801694FF000055C
:10318000C943890715D4C168C943890711D4E91E09
:10319000016101202077206880698007204602D0E5
:1031A000FFF7E7FF04E000F098F8204600F096F8FB
:1031B000257720680169C943490717D4C168C94305
:1031C000490713D46FF004010161022020772068C1
:1031D000806910F4407F204602D0FFF7CAFF04E068
:1031E00000F07BF8204600F079F825772068016927
:1031F000C943090716D4C168C943090712D46FF03F
:1032000008010161042020772068C06980072046FA
:1032100002D0FFF7AEFF04E000F05FF8204600F0B8
:103220005DF8257720680169C943C90617D4C168CC
:10323000C943C90613D46FF010010161082020773B
:103240002068C06910F4407F204602D0FFF791FF4C
:1032500004E000F042F8204600F040F825772068AE
:103260000169C943C90708D1C168C943C90704D165
:10327000891E0161204600F033F820680169C943C6
:10328000090609D4C168C943090605D46FF0800155
:1032900001612046FFF743FF20680169C9434906E1
:1032A00009D4C168C943490605D46FF040010161E2
:1032B000204600F01FF820680169C94389060BD435
:1032C000C168C943890607D46FF020010161204617
:1032D000BDE87040FFF724BF70BD70477047000025
:1032E00000680349884201D1FFF72EBA70470000F9
:1032F000000400407047704770B5026804461068CB
:10330000D168536910F00F0F50D003F0010501F49C
:10331000907635435DD0C20705D0CA0503D5E26B70
:1033200042F00102E263420705D5DA0703D0E26BFF
:1033300042F00202E263820705D5DA0703D0E26BAE
:1033400042F00402E263020705D5DA0703D0E26B1C
:1033500042F00802E263E26B002A33D0800604D513
:10336000880602D5204601F0A6FC20684069E16B82
:10337000C0F38010090700D428B3204601F084FC74
:103380002068416949061AD5416921F0400141612F
:10339000606BA0B11B494163606BFEF75DFE0028C6
:1033A00010D0606B416BBDE870400847830610D5B4
:1033B0008B060ED52046BDE8704001F07CBC20464F
:1033C000FFF799FF70BD2046FFF795FF0020E063EF
:1033D00070BD030606D50B0604D52046BDE8704037
:1033E00001F06CBD4006F3D54806F1D5D168204602
:1033F00021F04001D160202184F8391000F009FA51
:1034000070BD0000E94B000870B5040004D094F8CA
:103410003900002510B106E0012070BD84F8385055
:10342000204600F023F8242084F839002068C16881
:1034300021F40051C160204601F088FC2068016938
:1034400021F4904101612068416921F02A01416124
:103450002068C16841F40051C160E563202084F810
:10346000390084F83A00002070BD0000F0B585B046
:1034700000240094019402940394054603684C4888
:10348000DFF828C1022103224A4E0715634520D1E7
:10349000836943F480438361836903F48043049325
:1034A000836943F0040383618069039200F00400A0
:1034B00004900802CDE9000169463046FFF740F864
:1034C000CDE90074694630460294FFF739F805B03B
:1034D000F0BDDFF8E4C063453BD1C36943F400337A
:1034E000C361C36903F400330493836943F00403A5
:1034F00083618069039200F0040004900420CDE908
:10350000000169463046FFF71BF80820CDE90004AA
:10351000694630460294FFF713F8294E2748C6E95A
:1035200000048020C6E9024020203461C6E905403D
:10353000C001F0613046FEF74BFF08B1FEF7E4F83A
:103540006E630022052126207562FFF781F926208F
:1035500028E01C4DAB42BAD1C36943F48023C36158
:10356000C36903F480230493836943F008038361F0
:103570008069CDE9007100F00800CDE90320124D0B
:1035800069462846FEF7DCFFE814CDE900046946E9
:1035900028460294FEF7D4FF002205212720FFF7DA
:1035A00057F92720FFF748F991E70000003801405C
:1035B0000010024000080140004400406C0002403E
:1035C0004C0A002000480040000C0140F8B50446B9
:1035D00090F83A0020283CD1C1B3BAB394F838002F
:1035E000012836D0012084F83800A162A285002588
:1035F000E563222084F83A00636B17489862636B96
:103600001648D862636B16481863606B13464563AF
:103610000846666B216802463046091DFEF716FF14
:10362000206801684168009184F83850C16841F40D
:103630008071C1602068416941F0010141612068E9
:10364000416941F0400141610020F8BDFFE70120E0
:10365000FBE70220F9E70000434C00087F4C00081C
:10366000F94B000890F83A30202B22D1F9B1F2B191
:1036700090F83830012B1CD081628285C2850021F0
:10368000C163222280F83A2080F838100168CA68A5
:1036900042F48072CA6001684A6942F001024A61DC
:1036A0000068C16841F02001C1600020704701201E
:1036B0007047022070470000174910B5884209D1B1
:1036C0004FF4007215491448FFF780FF1449012098
:1036D000087010BD13498842FBD11348B0F800149C
:1036E00040F2FF32C1F30E0191420ED20F490B7826
:1036F000B0F80014B0F80024C1F30E014418491CBE
:1037000061F30E02A0F800242370BDE810400122EE
:1037100006490448FFF7A6BFCC090020BE060020DA
:10372000450000200C0A0020BC02002044000020BC
:10373000064910B5884208D14FF480720449034805
:10374000FFF744FF03490120087010BDCC09002099
:10375000BE060020460000202DE9F843044690F8FC
:1037600039001F4616460D46202850D1A5B19EB1FE
:1037700094F8380001284AD0012084F838004FF02E
:103780000008C4F83C80212084F83900FEF7D6FFF9
:10379000A6848146E68426E00120BDE8F883E08C1B
:1037A000401EE084A0684B46B0F5805F4FF00002F9
:1037B0004FF080012046009703D001F0B0FBE8B93C
:1037C0000DE001F0ACFBC8B928882168C0F30800FF
:1037D0004860206908B16D1C05E0AD1C03E021685C
:1037E00015F8010B4860E08C0028D8D14B46002228
:1037F00040212046009701F092FB08B10320CCE75E
:10380000202084F8390084F838800020C5E70220A1
:10381000C3E770472DE9F04100250E4607462C46C8
:1038200004E0384600F00FF80544641CB442F8DBAD
:1038300095FBF6F0BDE8F08110B50446FFF7EAFF0E
:103840002060204610BD70B504460025818980683F
:103850002A46FEF76EFFA18A2069FEF765FF012860
:10386000F9D00026A1890122A068FEF762FF6D0051
:10387000A18A2069FEF758FF012800D16D1CA1899B
:103880000022A068FEF755FF761CF6B2182EE9D389
:1038900000260BE0A1890122A068FEF74AFFA18A59
:1038A00000222069FEF745FF761CF6B26068B04240
:1038B000F0DC85F4000070BDFEE700F5FA618007DA
:1038C00001D0002070474FF4C870B1FBF0F200FB4C
:1038D000121030B16420B1FBF0F200FB121000288E
:1038E000F0D0012070470000044B4FF4805108B124
:1038F000002200E001221846FEF71BBF0014014021
:1039000070B51D461446049E00F03EF904FB05F018
:103910003146BDE8704000F015B908B54FF6FF70AC
:10392000002100904FF4A073F0220846FFF7E8FF53
:1039300008BDEF2804D8B1F5A07F01D2012070475F
:1039400000207047F0B5203A1C46D6B2102308225A
:10395000059D00F019F92C20C10608800A490B4B7F
:10396000002001EB06160021325CD70701D01C8035
:1039700000E01D80491C5208C9B20829F5D3401C3B
:10398000C0B21028EFD3F0BD408F000800000260E5
:1039900010B5144601231A4600F0F6F82146BDE89A
:1039A0001040012000F0CEB82DE9FE4F161ACDE9E7
:1039B00000104FF000085D1A47464FF0FF30002E10
:1039C00002DD4FF0010102E003D14FF000018B4610
:1039D00002E08346C6F10006002D02DD4FF0010033
:1039E00002E003D14FF00000824602E08246C5F1BA
:1039F0000005AE4201DD344600E02C46601C4FF06D
:103A0000000902901AE000BFDDE900100C9AFFF7F0
:103A1000BFFFB0442F44A04505DD0198A8EB040882
:103A2000584480B20190A74204DD00983F1B5044E7
:103A300080B2009009F101001FFA80F902998945CE
:103A4000E2DDBDE8FE8F2DE9F8411C46079E851892
:103A500088460746AAB20B460096FFF7A5FF4444E6
:103A6000A3B2AAB2A1B238460096FFF79DFF3A462C
:103A7000A3B2414610460096FFF796FFA3B2AAB242
:103A8000A8B241460096FFF78FFFBDE8F8812DE907
:103A9000F841054607981C461646884650B113461D
:103AA000284600F071F805FB08F02146BDE8F84112
:103AB00000F048B8AF19BAB20B4628460094FFF799
:103AC00073FF4644B3B2BAB2B1B228460094FFF7CE
:103AD0006BFF2A46B3B2414610460094FFF764FFDD
:103AE000B3B2BAB2B8B241460094FFF75DFFBDE889
:103AF000F88100002DE9F843994616460D46044624
:103B00004FF4A077DDF8208017E000BF04F1080033
:103B1000F02802D900241035ADB205F11000B842EA
:103B200001D9002425464B4629462046CDF8008081
:103B3000FFF708FF0834A4B2761C3278002AE5D1DA
:103B4000BDE8F88310B500222C23DC062380034B4C
:103B500001E01980521C8242FBD310BD00000260BC
:103B600008B50120FFF7C0FE00F0EAF800F02CF8DD
:103B70004FF6FF70002100904FF4A073F02208462A
:103B8000FFF7BEFE08BD000070B54FF0C0452A2407
:103B90002C800C4C060A2680C6B226801044401E9B
:103BA000020A2280C0B220802B202880080A2080B0
:103BB000C8B22080C818401E010A2180C0B22080EF
:103BC00070BD00000000026000B54FF0C041CF2082
:103BD000088059480022028081220280302202801F
:103BE000ED220A80642202800322028012220280D7
:103BF00081220280E8220A8085220280102202802F
:103C000078220280CB220A80392202802C22028074
:103C1000002202803422028002220280F7220A80DF
:103C200020220280EA220A80002202800280B12241
:103C30000A80002202801B220280B6220A800A2209
:103C40000280A2220280C0220A8035220280C12284
:103C50000A8011220280C5220A8045220280028049
:103C6000C7220A80A2220280F2220A800022028059
:103C700026220A8001220280E0220A800F2202808E
:103C800026220280242202800B2202800E22028041
:103C90000922028054220280A82202804622028049
:103CA0000C22028017220280092202800F22028049
:103CB0000722028000220280E1220A800022028084
:103CC000192202801B22028004220280102202801C
:103CD000072202802A2202804722028039220280A3
:103CE00003220280062202800280302202803822D3
:103CF00002800F22028036220A80C82202802A22F5
:103D00000A800022028002800280EF2202802B22A1
:103D10000A80002202800280012202803F2202806B
:103D20003A220A8055220280112008800348FDF7BC
:103D30006BFB2920088000BD00000260FCBF020070
:103D400070B50A4C002202212046FEF7F2FC084D15
:103D50002846FDF759FB012202212046FEF7E9FC27
:103D60002846BDE87040FDF74FBB00000018014039
:103D7000FCBF020010B5064C012222212046FEF7AE
:103D8000D8FC20460022BDE810400121FEF7D1BC3E
:103D9000000C0140012223210148FEF7CABC0000AB
:103DA000000C01403EB500241148009401940F49D5
:103DB000029401600125C0E90245446105614FF4A8
:103DC00060214460C161FDF793FF08B1FDF79CFCE1
:103DD0000C20CDE90005694602940548FDF706FF71
:103DE000002801D0FDF790FC3EBD000000240140FA
:103DF000C0080020094808B5416941F0010141614E
:103E00004069002200F00100009005211020FEF71B
:103E10001FFDBDE808401020FEF70EBD0010024057
:103E200010B59AB00020199019A804F011F81D4C93
:103E300014221D49A0616846FCF7FFF9002168467D
:103E400004F009F8184960601422143105A8FCF741
:103E5000F4F9002105A803F0FEFF1349A060142225
:103E600028310AA8FCF7E9F900210AA803F0F3FFBA
:103E70000D49E06014223C310FA8FCF7DEF9002167
:103E80000FA803F0E8FF084920611422503114A85C
:103E9000FCF7D3F9002114A803F0DDFF60611AB02C
:103EA00010BD0000000100203095000800B587B06B
:103EB0001C216846FCF7DAF917484FF02041102220
:103EC00001601649416000218160C160C0E90412AF
:103ED0008161C16113020162C0E90913C16201631A
:103EE000416381630F20FF230090CDE90103CDE9F9
:103EF00003021120CDE90501002269460648FFF7BB
:103F0000E1F808B1FDF700FC0548C16941F48061A2
:103F1000C16107B000BD0000F0080020040100A04E
:103F2000000001402DE9F04F85B000246448009462
:103F3000019402940394816941F040018161816997
:103F400001F040010491816941F0100181618169B2
:103F500001F010010491816941F0040181618169DE
:103F600001F004010491816941F0080181618169D6
:103F700001F008010491816941F0200181618069AB
:103F8000504F00F020000490002227213846FEF711
:103F9000D0FBDFF834A1002288215046FEF7C9FB90
:103FA000012223214948FEF7C4FB00224FF4A64119
:103FB0004648FEF7BEFBDFF818B14FF44058002228
:103FC00041465846FEF7B5FB4FF48079002249463A
:103FD0004048FEF7AEFB272001250226CDE900056B
:103FE000CDE9024669463846FEF7AAFA18208DE860
:103FF000310069463846FEF7A3FA374F6803CDE92A
:104000000007694602945046FEF79AFA8820CDE9E7
:104010000005CDE9024669465046FEF791FA009543
:10402000CDE9017469462B48FEF78AFA10208DE825
:10403000310069465046FEF783FA45F22300CDE988
:104040000005CDE9024669462048FEF779FA4FF4AB
:1040500020408DE8310069461C48FEF771FACDF822
:1040600000800396CDE9015469465846FEF768FA88
:10407000CDF800900396CDE9015469461548FEF746
:104080005FFA4FF44070CDE900050320CDE902400E
:1040900069460E48FEF754FA002211460620FEF744
:1040A000D7FB0620FEF7C8FB002211462820FEF7AA
:1040B000CFFB2820FEF7C0FB05B0BDE8F08F000065
:1040C000001002400018014000100140000C0140A7
:1040D000001401400008014000001110104810B504
:1040E0000E4901604FF48271416000218160C1601E
:1040F0004FF400720161C0E905120822C0E90721EE
:10410000416281620A21C162FEF762FF002803D08A
:10411000BDE81040FDF7F8BA10BD000000300140C6
:10412000340900200C4810B50A4901604FF4E13110
:104130004160002181600C22C160C0E904128161EC
:10414000C161FFF761F9002803D0BDE81040FDF719
:10415000DBBA10BD003801408C0900200C4810B5B6
:104160000A4901604FF416514160002181600C2220
:10417000C160C0E904128161C161FFF745F90028FF
:1041800003D0BDE81040FDF7BFBA10BD00440040A9
:10419000CC0900200C4810B50A4901604FF4E13108
:1041A0004160002181600C22C160C0E9041281617C
:1041B000C161FFF729F9002803D0BDE81040FDF7E1
:1041C000A3BA10BD004800400C0A002086B000F0E1
:1041D00095FF00F085F800F001FA412000F0DCF8CE
:1041E00024E002A9522000F0D0F926281ED102A80E
:1041F00000F00AF9262819D10020039004909DF8B8
:104200000B109DF80A00CDE900019DF809309DF8DA
:1042100008201BA103A801F0BBFC1EA103A8FCF70A
:1042200049F850B35FF0000001F068F801F060F861
:104230000128D6D01A4C4FF0FF35684601F02AFC11
:10424000BDF80210BDF80000FFF773FB88B1002332
:104250002A461946A06904F007FBBDF80210BDF814
:10426000000001F0FAF900231A461946A06904F08B
:10427000F5FB012003F0E0FDDFE70120D4E70000BB
:1042800025303258253032582530325825303258B2
:10429000000000003441373839333033000000006B
:1042A00000010020FEE770470907090E002806DA22
:1042B00000F00F0000F1E02080F8141D704700F1BD
:1042C000E02080F80014704770B50C46054600F0F9
:1042D000C7F920EA04012846BDE8704000F03ABA68
:1042E0002DE9F04186B0294800260296816941F403
:1042F00080518161816901F480510491816941F0AB
:1043000004018161816901F004010491816941F036
:10431000400181618069012500F040000490102077
:10432000CDE90005DFF86880022469460394404621
:10433000FEF706F92027CDE900756946404603944B
:10434000FEF7FEF88020CDE900056946039440465B
:10435000FEF7F6F84020CDE9000669464046FEF734
:10436000EFF803940B4CCDE9007569462046FEF743
:10437000E7F8012220212046FEF7DBF90122102177
:104380004046FEF7D6F906B0BDE8F08100100240C5
:10439000000801400018014010B5412826D108212D
:1043A0000846FFF791FF3D21112000F0D3F9862147
:1043B000172000F0CFF97F21262000F0CBF91E2135
:1043C0002D2000F0C7F900212C2000F0C3F98D2129
:1043D0002A2000F0BFF93E212B2000F0BBF902207B
:1043E00002F0CDF8BDE8104000F001B810BD10B5E6
:1043F000142000F035F9800705D10321BDE81040F5
:10440000142000F09BB910BD70B50646082188B095
:1044100000240846FFF758FF00210D2000F09AF90C
:1044200080210E20FFF750FF93208DF804002020FC
:104430008DF8050006A801AB0090022219460C2059
:1044400000F018F8054626280DD1002101A8425C8D
:104450007254425C491C5440C9B20429F7D3405CF1
:10446000A04200D0BB2580210E2000F067F908B0E3
:10447000284670BD2DE9FF5F0027BB25DDF838A079
:1044800016468B468146B8460C2805D0B9F10E0F6A
:1044900005D11227102001E077273020804647F011
:1044A0008001022000F056F980210420FFF70CFF64
:1044B0000021012000F04EF980210A2000F03EF991
:1044C000002405E01BF80410092000F043F9641CE7
:1044D000B442F7D34946012000F03CF9B9F10C0F82
:1044E00003D180210D2000F029F94FF47A760420C1
:1044F00000F0B6F80446761E04D0E00702D114EAB4
:10450000080FF4D080210D20FFF7DEFE36B1062023
:1045100000F0A6F810F01B0F0CD0BB2580210C205A
:1045200000F00CF90021012000F014F904B0284635
:10453000BDE8F09F26253C40E00700D0CC25B9F12E
:104540000C0FEBD10A2000F08BF804460C2000F091
:1045500087F810F007004FEAC40101D00839014480
:10456000CAF8001024B1122C04D91224002603E04A
:104570000124FBE7002605E0092000F071F803990B
:104580008855761CA642F7D3C8E730B50C460546D9
:10459000082187B00846FFF797FE07210D2000F09D
:1045A000D9F80321142000F0C9F806A801AB009047
:1045B0008DF80450012219460C20FFF75BFF2628D6
:1045C00002D10699102902D0BB2007B030BD9DF85A
:1045D000041021709DF805106170F6E710B51F4CAE
:1045E000012220212046FEF7A4F8012001F0C7FF98
:1045F000002220212046FEF79CF8012001F0BFFF99
:10460000012220212046FEF794F8012001F0B7FF97
:104610000F21012000F09EF8012000F021F8C006D3
:10462000FAD4012001F0ABFF3D21112000F092F8F7
:104630001E212D2000F08EF800212C2000F08AF899
:104640008D212A2000F086F83E212B2000F082F8F0
:104650004021BDE81040152000F07CB80018014052
:1046600070B57E2101EA40000A4D40F0800400222E
:1046700010212846FEF75DF8204600F035F800F0DE
:104680000BF80446012210212846FEF752F8204676
:1046900070BD00000008014070B5124E002468068D
:1046A000050E002220213046FEF743F8C82001F015
:1046B00066FF40213046FEF737F8012801D145F06A
:1046C0000105C82001F05BFF012220213046FEF7E2
:1046D00030F8C82001F053FF641CE4B2082CDED38C
:1046E000284670BD0008014070B5134E05460024F1
:1046F000280601D5012200E0002280213046FEF785
:1047000018F8C82001F03BFF002220213046FEF7B8
:1047100010F8C82001F033FF012220213046FEF7B7
:1047200008F8C82001F02BFF6806641C050EE4B2EF
:10473000082CDDD370BD00000008014070B50C46A8
:104740000546FFF78DFF40EA04012846BDE87040AA
:10475000AFF3008070B50E467E2101EA4004094D9A
:10476000002210212846FDF7E4FF2046FFF7BCFF9A
:104770003046FFF7B9FF2846BDE8704001221021FE
:10478000FDF7D7BF0008014010B5502080F3118815
:10479000BFF34F8FBFF36F8F04F086FA18B104494F
:1047A0004FF080500860002080F3118810BD000099
:1047B00004ED00E030B595B028216846FBF756FDC2
:1047C00014210AA8FBF752FD18210FA8FBF74EFD94
:1047D00001210804CDE9001000240294022504916F
:1047E000CDE907504FF4E01009906846FEF76EFAE5
:1047F0000F20CDE90A056802CDE90C4002210AA884
:104800000E94FEF737F9A80311900F950FA8FEF745
:10481000BBF815B030BD00000D48016841F0010142
:10482000016041680B4A1140416001680A4A114029
:104830000160016821F480210160416821F4FE01DA
:1048400041604FF41F0181600449C0030860704754
:10485000001002400000FFF8FFFFF6FE08ED00E048
:104860000148FEF787BC0000900A0020F0B50268FE
:104870001C4B1D4D1D4E1E4F1E4C4FF0804C984240
:1048800009D0A04207D0604505D0A84203D0B0426D
:1048900001D0B84204D122F0700E4A6842EA0E02FA
:1048A000984209D0A04207D0604505D0A84203D065
:1048B000B04201D0B84203D122F44075CA682A43FD
:1048C00022F080054A692A4302608A68C2620A6847
:1048D0008262984201D0A04201D10969016301219D
:1048E0004161F0BD002C0140000400400008004080
:1048F000000C00400034014000F0FAFC0128FBD01D
:10490000FCF704FC0D4C4FF0FF350C481C30FCF755
:1049100015FC78B100232A461946A06903F0A4FFCC
:1049200006481C3000F028FD00231A461946A069ED
:1049300004F094F8012003F07FFAE6E7000100207C
:10494000ADF1480D00F0D4FC0128FBD048223349DA
:104950006846FBF772FC3248FDF7E4F83048FDF793
:104960001BFBDFF8C080304C6E464FF0FF3900254E
:1049700005EB450706EBC7000121FEF75DFF0023AD
:104980004A461946A06903F06FFF56F837104145B3
:1049900001DC012100E000216D1CE8B200F042FDC5
:1049A00000231A461946A06904F058F8EDB2032D09
:1049B000DED300994046814208DD0699814205DD3B
:1049C0000C99414502DDFCF797FB01E0FCF78CFBFD
:1049D0004FF47A711248FDF747FAD0B91048FDF745
:1049E00083F9002320604A461946A06903F03CFF82
:1049F0000D4800F09FFC00231A461946A06904F0F8
:104A00002DF820683C2802D9FFF7B4F901E0FFF740
:104A1000C1F9012003F010FAA9E7000094950008FD
:104A2000C008002060C0840000010020ADF1300DFE
:104A300000F05EFC0128FBD0FCF74CFDFCF722FDEA
:104A40000020FCF7C7FD32A134A0FCF74DFD052383
:104A500034A236A10020FCF765FDDFF8E0A00AF1E2
:104A60001C098C2003F040FC0446FA2003F03CFCB7
:104A70008046032000F0BCFC4778022000F0B8FC20
:104A80004678012000F0B4FC457800F0B9FC0146FE
:104A90005046D0E90C23CDE90A23DAE90A2304A819
:104AA00080E8E200CDE9082399F8031099F8013075
:104AB00099F80020DAF800508DE82E0099F80230BD
:104AC0001F4A8C21204601F04BF82046FBF7EBFBF8
:104AD00014A1CDE9001015A31A4A0294FA21404608
:104AE00001F03EF84046FBF7DEFB02460523414657
:104AF0000020FCF79FFD204603F006FD404603F032
:104B000003FDFCF7D3FC012003F096F9A9E70000B0
:104B10005774663637363831343336006B6566691C
:104B20003233340033303030000000003139322E5F
:104B30003136382E312E34310000000000010020C3
:104B4000049800086C970008ADF5D46D00F0D0FB18
:104B50000128FBD0FCF7DAFF00208DF8980603F05F
:104B600077F81D49016003F073F81C49416003F0B8
:104B70006FF81B49816002A803F050F90DF28460C0
:104B800002F098FE174C0DF5CD654FF0FF3600BFD3
:104B90000DF5D3601349CDE9005030310DF2846337
:104BA00002AAA1F10800FCF73DFE00233246194697
:104BB000A06903F059FE0B4902AA3031A1F10800A7
:104BC00000F0EAF900231A461946A06903F046FFEF
:104BD000012003F031F9DBE7211B0008B1190008BF
:104BE000CD1A00080001002010B5406A0021C185DF
:104BF000C184FEF780FB10BD70B5446A206840692F
:104C000094F83910C0F3C0100025212904D118B13F
:104C1000E584204600F046F82068406994F83A1090
:104C2000C0F38010222904D118B1E585204600F098
:104C30002BF8E06B40F01000E0632046FEF75BFBD2
:104C400070BD10B50146406A09680968890613D429
:104C50000021C1850168CA6822F48072CA600168B7
:104C60004A6922F001024A6101684A6922F0400261
:104C70004A61202180F83A10FEF71EFD10BD10B5E4
:104C8000406AFEF755FD10BD0168CA6822F49072B3
:104C9000CA6001684A6922F001024A61202180F855
:104CA0003A1070470168CA6822F0C002CA60202129
:104CB00080F83910704710B590F83A10222901D0C9
:104CC000022010BD8168B1F5805F11D00169002913
:104CD00001681FD0496801F07F03816A4A1C826223
:104CE0000B70C18D491E0904090CC18518D02BE039
:104CF0000269816A002A0268526805D0D2B20A802D
:104D0000816A491C8162ECE7C2F308020A80816A69
:104D1000891CF7E74A68816A4B1C83620A70E0E7E6
:104D20000168CA6822F02002CA600168CA6822F4D9
:104D30008072CA6001684A6922F001024A6120213A
:104D400080F83A10FEF7B8FC002010BD2DE9F041C4
:104D5000044600680169E26821F440511143016191
:104D60002169A0680843616908432168CA6841F263
:104D70000C639A430243CA6020684169A26921F426
:104D80004071114341614C492068642532268842B4
:104D90003CD1FDF755FF00EBC00101EB001061684D
:104DA0008900B0FBF1F7FDF74BFF00EBC00101EB11
:104DB00000106168B0468900B0FBF1F0B0FBF5F07F
:104DC0006FF01801484307EB800106EB0110B0FBC0
:104DD000F5F000F0F006FDF733FF00EBC00101EB4A
:104DE000001061688900B0FBF1F0B0FBF5F006EB54
:104DF0000016FDF725FF00EBC00101EB0010616814
:104E00008900B0FBF1F7FDF71BFF3BE0FDF708FF62
:104E100000EBC00101EB001061688900B0FBF1F705
:104E2000FDF7FEFE00EBC00101EB00106168B0462B
:104E30008900B0FBF1F0B0FBF5F06FF018014843CA
:104E400007EB800106EB0110B0FBF5F000F0F00677
:104E5000FDF7E6FE00EBC00101EB00106168890080
:104E6000B0FBF1F0B0FBF5F006EB0016FDF7D8FE55
:104E700000EBC00101EB001061688900B0FBF1F7A5
:104E8000FDF7CEFE00EBC00101EB00106168890068
:104E9000B0FBF1F0B0FBF5F06FF01801484307EB01
:104EA000800108EB0110B0FBF5F0216800F00F0065
:104EB00030448860BDE8F0810038014090F8391036
:104EC000212901D0022070478168B1F5805F016A15
:104ED0000BD04A1C0262026809785160C18C491EDD
:104EE0000904090CC1840ED017E009880268C1F3D7
:104EF0000801516001690029016A02D0491C016260
:104F0000ECE7891CFBE70168CA6822F08002CA60EE
:104F10000068C16841F04001C160002070472DE980
:104F2000F041984617460E460446069D1DE0681C53
:104F30001BD02DB1FDF702FCA0EB0800A84214D94C
:104F40002068C16821F4D071C1602068416921F0F6
:104F500001014161202084F8390084F83A000020E2
:104F600084F838000320BDE8F0812068006836EA44
:104F7000000004D00020B842D9D00020F3E701207F
:104F8000F9E708B54FF6FF700090FF23F0221921D2
:104F90000020FEF7B5FC08BDF0B504464E4887B0CA
:104FA000154640780F4602287DD1142101A8FBF751
:104FB0005DF9D4E9002349A101A800F0E9FD4FF60D
:104FC000FF741023902232216E200094FEF798FC8B
:104FD0004FF47846334601AA32216E200094FEF742
:104FE00089FDD7E900233DA101A800F0D1FD1023E0
:104FF000902250216E200094FEF782FC334601AAD5
:1050000050216E200094FEF775FDD5E9142334A1DC
:1050100001A800F0BDFD6E211023902208460094E7
:10502000FEF76EFC6E21334601AA08460094FEF797
:1050300061FDD5E918232CA101A800F0A9FD1023DA
:1050400090228C216E200094FEF75AFC334601AA70
:105050008C216E200094FEF74DFDD5E91A2324A182
:1050600001A800F095FD10239022AA216E20009443
:10507000FEF746FC334601AAAA216E200094FEF7F3
:1050800039FD1DA101A8EA6F00F082FD10239022D6
:10509000C8216E200094FEF733FCC821334601AAD4
:1050A0006E20009400E015E0FEF724FD12A101A897
:1050B000D5F8802000F06CFD10239022E6216E20B0
:1050C0000094FEF71DFC334601AAE6216E200094F1
:1050D000FEF710FD07B0F0BD470000202566000078
:1050E0002566206D000000002566206B6D2F68008E
:1050F0002566206465670000256400000348007889
:1051000008B100F011B800F003B80000470000201B
:1051100010B500F0D3F800F021F800F0BFF8BDE8BA
:105120001040002000F074BA08B54FF6FF700090F0
:10513000002303A232211420FEF7DCFC08BD00008E
:10514000506C656173652075736520524649442033
:10515000746F206C6F67696E000000002DE9F843E2
:10516000484800254FF6FF7441784FF48C70071DB6
:105170004FF4784681B3012959D002292AD18046BB
:1051800001462823502200200095FEF75CFC0023F6
:105190003DA2394604200094FEF7ACFC502228239F
:1051A000414610460095FEF74EFC002338A23946D2
:1051B00054200094FEF79EFC282350224146A02054
:1051C0000096FEF740FC334633A23946A4200094F3
:1051D000FEF790FCBDE8F883FFE7502280460146C9
:1051E000282310460095FEF72EFC002328A23946FE
:1051F00054200094FEF77EFC282350224146A02034
:105200000095FEF720FC002323A23946A420009439
:10521000FEF770FC28235022414600200096FEF73E
:1052200012FC334618A2394604200094D0E7804689
:1052300001462823502200200095FEF704FC00239D
:1052400011A2394604200094FEF754FC2823502272
:105250004146A0200095FEF7F6FB00230EA239463A
:10526000A4200094FEF746FC502228234146104615
:105270000096FEF7E8FB334605A239465420009419
:10528000A6E7000047000020524F4F4D00000000ED
:105290005345415453000000475053000020064A34
:1052A0000123411C02F8101002EB40004370C8B209
:1052B0000328F6D3704700004900002008B50021FC
:1052C00041F27070FEF73EFC0020042100904FF682
:1052D000FF7302A20846FEF70DFC08BD427573205D
:1052E0004175746F6D6174696F6E20312E300000EE
:1052F00001480078704700004700002008B540B121
:10530000094900200870FEF708FBBDE80840FFF7D8
:10531000FFBE4FF6FF7000904FF4784303A2642164
:105320001420FEF7E7FB08BD47000020496E7661B8
:105330006C6964003EB50E494978002917D1019186
:10534000029102680BA101A800F022FC4FF6FF7445
:10535000102328229621C8200094FEF7D1FA4FF49A
:10536000784301AA9621C8200094FEF7C3FB3EBDF6
:105370004700002025750000FEB504461948407816
:1053800000282DD101900290E378A27816A101A8FF
:1053900000F0FEFB4FF6FF75102328224621C8209F
:1053A0000095FEF7ADFA4FF47846334601AA462140
:1053B000C8200095FEF79EFB637822780AA101A819
:1053C00000F0E6FB102328226E21C8200095FEF78E
:1053D00097FA334601AA6E21C8200095FEF78AFB92
:1053E000FEBD00004700002025642E25640000005B
:1053F000024901EB4000801E704700004900002078
:105400000020074A014600BF02EB41035B780BB165
:10541000401CC0B2491CC9B20329F5D37047000033
:1054200049000020034A02EB400000F8011C00F094
:1054300003B80000490000202DE9F84328484078CF
:1054400001284BD1264C0125A41C009560784FF40F
:10545000FC664FF4784708B1334600E03B46322201
:1054600046212820FEF713FB607808B1304600E0A3
:1054700038464FF6FF78009043461AA24B212D2064
:10548000FEF738FB0095E07808B1334600E03B4674
:10549000322246218C20FEF7FAFAE07808B1304635
:1054A00000E03846009043460FA24B219120FEF7C2
:1054B00021FB0095607908B1334600E03B4632227B
:1054C000AA212820FEF7E3FA607900B93E46434658
:1054D00006A2AF212D200096FEF70CFBBDE8F88355
:1054E00047000020310000003200000033000000BF
:1054F00038B52C484FF6FF744078002837D0012883
:105500004AD0022832D1FFF73CFD002326A23221E7
:105510000F200094FEF7EEFA002326A250210F2060
:105520000094FEF7E7FA002325A26E210F200094D5
:10553000FEF7E0FA002325A28C210F200094FEF74D
:10554000D9FA002323A2AA210F200094FEF7D2FA51
:10555000002323A2C8210F200094FEF7CBFA0023DA
:1055600021A2E62100940F20FEF7C4FA38BDFFF710
:1055700008FD00231EA246210F200094FEF7BAFA70
:1055800000231EA26E210F200094FEF7B3FA002321
:105590001DA296210094E6E7FFF7F3FCBDE8384032
:1055A000FFF74ABF470000204C6174697475646559
:1055B000000000004C6F6E67697475646500000040
:1055C000416C746974756465000000005370656512
:1055D00064000000446972656374696F6E000000C6
:1055E000496E20557365000056697369626C6500E9
:1055F00054656D70657261747572650048756D698A
:1056000064697479000000004C69676874000000E8
:10561000044910B54870FFF7A1FDBDE81040FFF741
:1056200067BF000047000020A1F58C71502803D20D
:10563000282901D200207047A0F15002502A03D23D
:10564000282901D201207047A038502803D22829E8
:1056500001D2022070470320704710B5FFF7E4FF26
:10566000BDE81040FFF7D4BF0148FDF745BE00007C
:10567000CC09002010B50E48FDF73EFE0C4800682E
:10568000C068C00612D50B48B0F8001441F40041C0
:10569000A0F80014084800680849087008A10548E7
:1056A000FAF7EFFD00B101200849087010BD0000B5
:1056B0000C0A0020BC0200200448004044000020E6
:1056C000434C4F5345440D0A0000000040010020A8
:1056D0000FB42DE9F04186B00EAC0A264FF0000859
:1056E000444D10E05C2817D0252829D0FF23012243
:1056F0004048FEF731F80D98401C0D90286801686D
:10570000C9430906FBD40D9908780028EAD106B0F0
:10571000BDE8F0015DF814FB491C0D9108786E2876
:1057200005D0722813D10D208DF8100001E08DF8FE
:105730001060FF23012204A92E48FEF70DF81AE09D
:10574000491C0D910878642819D0732802D0491C8F
:105750000D91D8E780CC0BE0FF2301223946254884
:10576000FDF7FAFF29680868C0430006FBD47F1CD8
:1057700038780028F0D10D98401C0D90C3E701CC7B
:105780000027694600281FD007DA4FF02D028DF858
:105790000020C0F1000001F1010142F2107300BFCE
:1057A00090FBF3F252EA070C06D002F1300701F841
:1057B000017B02FB1300012793FBF6F3002BEFDCC8
:1057C00081F800806F4611E030208DF800008DF8E0
:1057D0000180F7E7FF23012239460648FDF7BCFFA9
:1057E00028680168C9430906FBD47F1C3878002863
:1057F000F0D1C0E70C0A0020FEE701B5002004E06C
:105800000B21491EC9B2FCD2401C00998842F7D333
:1058100008BD2DE9FC4107460C460126684600F00C
:1058200065F890B3BDF90200FAF7B3FFD4F894100D
:105830009034FAF7F4FD0546BDF90000FAF7A9FF28
:105840002168FAF7ECFD2946FAF791FDA168FAF70D
:105850008EFDFAF7B8FF3880BDF90200FAF799FF1C
:105860002169FAF7DCFD0546BDF90000FAF791FF62
:10587000E168FAF7D4FD2946FAF779FD6169FAF78C
:1058800076FDFAF7A0FF788001E0FFE700263046BA
:10589000BDE8FC8170B500F021F9134E00252A46C1
:1058A00004213046FCF745FF012211463046FCF743
:1058B00040FF0024002201213046FCF73AFF082176
:1058C0003046FCF731FFC4F10B018840284385B214
:1058D000012211463046FCF72CFF641CE4B20C2C6C
:1058E000E8D3284670BD0000001801402DE9F041C2
:1058F0008AB00546002628216846FAF7B7FCDFF88B
:1059000020816C469020FFF7C5FF07460120FFF776
:1059100074FFD020FFF7BEFF24F8167004EB460199
:10592000761C8882F6B210214046FCF7FDFE08B9CD
:105930000A2EE7D310214046FCF7F6FE10B1394994
:10594000002008700A2E03D000200AB0BDE8F081C4
:10595000BDF90010BDF914008C46624603460126CD
:1059600034F916708F4201DA394602E0974200DDC1
:105970003A46761CF6B20A2EF2D3012604EB46070D
:10598000B7F914709F4201DA3B4602E0874200DD1E
:105990003846761CF6B20A2EF0D3BDF90240BDF9A6
:1059A0000460BDF9067064443E443444BDF90860A7
:1059B0003444BDF90A603444BDF90C603444BDF987
:1059C0000E603444BDF910603444BDF912603444B3
:1059D000611A891AC9102980BDF91410BDF9162061
:1059E000BDF91A401144BDF9182022441144BDF9F3
:1059F0001C201144BDF91E201144BDF92020114482
:105A0000BDF922201144BDF924201144BDF92620FE
:105A10001144C91A081AC0106880012095E70000D7
:105A200000180140500000202DE9F041164C0026DE
:105A3000164861783546012731B14FF00208012937
:105A400007D0022918D113E01021FCF76DFE68B1D0
:105A500012E01021FCF768FE08B165600CE0606898
:105A6000401C6060022801D9656009E0677004E0AD
:105A70001021FCF759FE18B165703046BDE8F08181
:105A800084F801800126F8E750000020001801404A
:105A90007047000070B54FF0FF35C58085804580A8
:105AA00004460580FFF7C0FF012807D0204600F01C
:105AB00013F825806580A580E58070BD05492046E6
:105AC000FFF7A7FE2046FFF7E3FF2088A08060884D
:105AD000E08070BD580000207047000070B5174D81
